:020000040000FA
:040600008331082B0F
:100608007E1483317E10090083310A2B83317B23CA
:100618008331F70083317C238331F80083317D23D4
:100628008331F90083317E238331FA00F001F1012F
:10063800F201F301F401F501F601203084000030E5
:10064800850010308331752383317E10200083317B
:100658002D2B8331642383310330FC000830FB00E9
:100668007730890B352BFB0B352BFC0B352B00001A
:10067800031022008C1C03140318432B462B220062
:100688008C14482B22008C10302B8331082B02301D
:1006980022008C008D01FD3021008C00FF308D0080
:1006A800083023008D0019308C00C03024008D00E4
:1006B8008C012100951322009D019E018B150800D5
:1006C80083314B23833183316E23833183317F23FD
:1006D80083310800703021009900980122009601AA
:1006E8000800640080010131890B762B0034FF3447
:1006F8000F3455343434163021009700080025345F
:020000040001F9
:04000E00E4FFFFFE0E
:00000001FF
