:020000040000FA
:040600008331082B0F
:100608007E1483317E10090083310A2B8331DF2366
:100618008331F5008331E0238331F6008331E12310
:100628008331F7008331E2238331F800F001F101CF
:10063800F201F301F401203084000030850012300B
:100648008331D92383317E10200083312B2B8331D2
:10065800C02383318331CA2383310330FC0008303F
:10066800FB007730890B362BFB0B362BFC0B362B1C
:100678000000031022008C1C03140318442B472B82
:1006880022008C14492B22008C100530FC000F30FE
:10069800FB00F130890B4E2BFB0B4E2BFC0B4E2B2A
:1006A8000000031022008C1C031403185C2B5F2B22
:1006B80022008C14612B22008C100530FC000F30B6
:1006C800FB00F130890B662BFB0B662BFC0B662BB2
:1006D8000000031022008C1C03140318742B772BC2
:1006E80022008C14792B22008C100330FC00083077
:1006F800FB007730890B7E2BFB0B7E2BFC0B7E2BB4
:100708000000031022008C1C031403188C2B8F2B61
:1007180022008C14912B22008C10312B8331082B52
:10072800023022008C008D01FD3021008C00FF304A
:100738008D00083023008D0019308C00C030240053
:100748008D008C012100951322009D019E018B15BF
:1007580008007908230091007A08920015131515EE
:100768009517151655309600AA3096009514000076
:10077800000023001511080083319423833183314D
:10078800D22383318331E32383310800E030F90039
:100798000F30FA008331AD23833108007030210017
:1007A8009900980122009601080064008001013137
:1007B800890BDA2B0034FF340F34553434341630B7
:0807C800210097000800253410
:020000040001F9
:04000E00E4FFFFFE0E
:00000001FF
