:020000040000FA
:04000000803109281A
:100008007E148031942A7E10090080310B288231B9
:100018007D228031BA0082317E228031BB0082315C
:100028007F228031BC00823180228031BD00F901FD
:10003800FA012030840000308500153082317722A3
:1000480080317E1020008131D4292000B501141C94
:100058002E282F287E2924001C082539F700770828
:100068002000B50024009C1D3A283B2872295B29F2
:10007800240019082000A401A40A792924001908D9
:10008800F70077082000B8002403031D4C284D28EA
:1000980057283808F7007708A300A2010230F700B4
:1000A8007708A400792902302406031D5C285D28FE
:1000B80079292303031D6128622879282208031D52
:1000C8006628672870283808F7007708A1000130EB
:1000D800F7007708A20779282203031D74287528DA
:1000E80079283808F7007708A00002302306031D96
:1000F8007E287F2879293808F7002208253E8600BF
:100108008701770881000130F7007708A2071030CF
:100118002206031D9028912894280130A2027929EB
:1001280079292303031D99289A289E2821088231BA
:100138005B228031033020002306031DA428A52854
:10014800EA282208031DA928AA28EA28B9012108B3
:10015800F1002008F000823125228031710820004A
:10016800B7007008B6003708F7003908253E860042
:100178008701770881003608F7003908263E86008F
:100188008701770881000130A0070030A13D0230C7
:10019800F7007708B90710303902031CD428D5288E
:1001A800AB282208253E86008701010882315B22A0
:1001B80080310130F70077082000A20710302206AE
:1001C800031DE728E828EA280130A20204302306A4
:1001D800031DEF28F02800292108F1002008F0006D
:1001E80082313822803120302000A0070030A13D24
:1001F800003082315B228031053020002306031D48
:10020800062907291F292108F1002008F0002530B8
:10021800F7007708F2000830F8007808F300813119
:100228007F21803108302000A0070030A13D003038
:1002380082315B228031063020002306031D2529E8
:1002480026297929003082315B2280312000B901CA
:100258000130F7007708B907390A031D3429352911
:100268002C29010079292303031D3B293C29402916
:10027800200882315B228031033020002306031DD1
:100288004629472979292208253E86008701010841
:1002980082315B2280310130F70077082000A20705
:1002A80010302206031D59295A2994289128200024
:1002B8003508F700F8017808003A03196429792904
:1002C8007708013A03193C28043A03199528243A77
:1002D80003194228053A0319372979291C1E75295B
:1002E8007629792900002000A40120001410240098
:1002F8009D161D1608007335FE3EF4007408F500BF
:10030800230095017008910071089200F601B02948
:1003180076087207F40074088600870101089400C3
:1003280076087207F400740886008701413F93003D
:10033800951715151513951655309600AA30960081
:100348009514000000000130230091070030923D11
:100358000230F4007408F60775087602031CB52904
:10036800B6298C2975087207F4007408860087017D
:100378000108940075087207F40074088600870164
:10038800413F930095171515151395125530960092
:10039800AA309600951400000000230015110800EB
:1003A80082316622813182314B22813120000D1B3E
:1003B800DE29DF29E92922008C1020000D1FE529FC
:1003C800E629E12922008C14FA29FF30F000FF30D9
:1003D800F1008231252281315530700634300319FD
:1003E8007106031DF829F929FA29902A8031292054
:1003F8008131031022008C1C03140318042A072AD5
:1004080022008C14092A22008C10FA29803109282C
:10041800023022008C008D01FD3021008C00FF305D
:100428008D00083023008D0019308C00C030240066
:100438008D008C012100951322009D019E018B15D2
:100448000800700823009100710892001513951296
:1004580095178B131514000000008B172300140840
:10046800F1001308F00008007008230091007108DB
:100478009200151315159517151655309600AA30C4
:1004880096009514000000002300151108002100B3
:100498000D158D162400990180309C00A0309A001B
:1004A80036309D006030F00070089F040800F000AE
:1004B80024009D13700899009D1B632A642A5C2AF6
:1004C8001D16080082310C2282318231702282315D
:1004D8008231812282310800703021009900980110
:1004E800220096010800640080010131890B782AF6
:1004F8000034FF34FF34553434341630210097006B
:04050800080025348E
:020000040001F9
:04000E00E4FFFFFE0E
:10E00000AA00BB00CC00DD00EE00000011002200E1
:00000001FF
