:020000040000FA
:04000000803109281A
:100008007E148031042B7E10090080310B28823148
:10001800B1228031BA008231B2228031BB008231F4
:10002800B3228031BC008231B4228031BD00F90195
:10003800FA01203084000030850015308231AB226F
:1000480080317E1020008231112A2000B501141C55
:100058002E282F28C52924001C082539F7007708E1
:100068002000B50024009C1D3A283B28B929A22964
:10007800240019082000A401A40AC0292400190892
:10008800F70077082000B8002403031D4C284D28EA
:1000980057283808F7007708A300A2010230F700B4
:1000A8007708A400C02902302406031D5C285D28B7
:1000B800C0292303031D612862288D282208031DF7
:1000C8006628672871283808F7007708A1000130EA
:1000D800F70077082000A207C0292203031D75280E
:1000E8007628C0293808F7007708A0002108803A48
:1000F800F70090307702031D832800302002031C8C
:1001080086288728A828FF302000A0000F30A100EB
:10011800C02902302306031D92289328A8283808EE
:10012800F7002208253E8600870177088100013004
:10013800F7007708A20710302206031DA428A52877
:10014800A8280130A202C029C0292303031DAD2815
:10015800AE28B328210882318F228031C02903308C
:100168002306031DB828B928FD282208031DBD2829
:10017800BE28C029B9012108F1002008F000823109
:100188007F22803171082000B7007008B600370858
:10019800F7003908253E8600870177088100360870
:1001A800F7003908263E860087017708810001306C
:1001B800A0070030A13D0230F7007708B9071030DA
:1001C8003902031CE828E928BF282208253E8600B2
:1001D8008701010882318F2280310130F7007708CA
:1001E8002000A20710302206031DFB28FC28A8289F
:1001F800A52804302306031D0229032914292108F0
:10020800F1002008F00082316C228031203020007B
:10021800A0070030A13D003082318F228031C029F3
:1002280005302306031D19291A2933292108F1004D
:100238002008F0002530F7007708F2000830F800B1
:100248007808F3008131C621803108302000A007EA
:100258000030A13D003082318F228031C029063024
:100268002306031D382939294A29003082318F2273
:1002780080312000B9010130F7007708B907390A41
:10028800031D472948293F290100C029AA30230610
:10029800031D4F2950295529AA3082318F228031D8
:1002A800C02907302306031D5A295B29A8282208DC
:1002B800253E86008701010882318F2280316B2814
:1002C8002303031D682969296E29200882318F229A
:1002D8008031C02903302306031D73297429882916
:1002E8002208253E86008701010882318F2280314D
:1002F8000130F70077082000A20710302206031DFE
:1003080086298729C029A52807302306031D8D299A
:100318008E29C0292208253E8600870101088231DE
:100328008F2280310130F70077082000A2071030B3
:100338002206031DA029A129A828A52820003508E0
:10034800F700F8017808003A0319AB29C0297708A3
:10035800013A03193C28043A0319A928243A031935
:100368004228053A03196429C0291C1EBC29BD2945
:10037800C02900002000A4012000141024009D16AC
:100388001D1608002300950170089100710892005D
:10039800F601F32976087207F400740886008701CD
:1003A80001082300940076087207F4007408860098
:1003B8008701413F9300951715151513951655306C
:1003C8009600AA3096009514000000000130F40051
:1003D8007408230091070230F4007408F6077308C4
:1003E800F400F501F435F50D7508803A803C031DDD
:1003F800FF2974087602031C022A032ACE29013039
:1004080023009102951255309600AA309600951453
:100418000000000023001511080082319A22823161
:10042800FF30F0000F30F10082317F2282315530E9
:100438007006343003197106031D232A242A252A3D
:10044800002B82313A2282318031292082310310F7
:1004580022008C1C03140318322A352A22008C141B
:10046800372A22008C10282A8031092821000D15EE
:100478008D162400990180309C0020000D1C452A0F
:10048800462A4A2A223024009A004D2A2030240085
:100498009A0036309D006030F00070089F04080014
:1004A800023022008C008D01FD3021008C00FF30CD
:1004B8008D00083023008D0019308C00C0302400D6
:1004C8008D008C012100951322009D019E010800DA
:1004D80070082300910071089200151315159517DF
:1004E800151655309600AA309600951400000000A5
:1004F800230015110800700823009100710892006C
:100508001513951715140000000023001408F100B6
:100518001308F0000800F00024009D1370089900EB
:100528009D1B972A982A902A1D160800823154226A
:1005380082318231A42282318231B522823108008F
:10054800703021009900980122009601080064008B
:1005580080010131890BAC2A0034FF340F34553443
:0C056800343416302100970008002534C0
:020000040001F9
:04000E00E4FFFFFE0E
:00000001FF
